:100000000C9434000C9440000C943E000C943E0080
:100010000C943E000C943E000C943E000C943E0068
:100020000C943E000C943E000C943E000C943E0058
:100030000C943E000C943E000C943E000C943E0048
:100040000C943E000C943E000C943E000C943E0038
:100050000C943E000C943E000C943E000C943E0028
:100060000C943E000C943E0011241FBECFEFD8E04C
:10007000DEBFCDBF0E9490000C94AA000C9400003B
:100080001F920F9200905F000F9211242F933F93C5
:100090008F939F93EF93FF93CF93DF93CDB7DEB70B
:1000A00085E290E025E230E0F901308124E0232769
:1000B000FC0120830000DF91CF91FF91EF919F9190
:1000C0008F913F912F910F9000925F000F901F90A2
:1000D0001895CF93DF93CDB7DEB789E690E021E0A6
:1000E000FC0120838DE390E021E0FC0120837894E3
:1000F00085E290E025E230E0F901308124E0232719
:10010000FC0120838BE290E024E0FC01208384E268
:1001100090E024E0FC0120830000DF91CF9108955E
:10012000CF93DF93CDB7DEB70E94690083E590E0FF
:1001300023E530E0F90120812160FC0120838895CE
:1001400083E590E023E530E0F90120812E7FFC017A
:080150002083ECCFF894FFCFEF
:00000001FF
